:100000000C942A000C943F000C943F000C943F0089
:100010000C943F000C943F000C943F000C943F0064
:100020000C943F000C943F000C943F000C943F0054
:100030000C943F000C943F000C943F000C943F0044
:100040000C943F000C943F000C943F000C943F0034
:100050000C943F0011241FBECFE5D4E0DEBFCDBF1E
:1000600010E0A0E6B0E0EAE3F1E002C005900D92F6
:10007000A636B107D9F70E9441000C949B000C945E
:100080000000CF93DF9300D000D000D0CDB7DEB713
:100090008FEF8ABB17BA88BB11BA82BB86E0E0E655
:1000A000F0E0DE01119601900D928A95E1F720E0D3
:1000B00030E006E010E0B09B14C0C901B8010E9416
:1000C0007300E1E0F0E0EC0FFD1FE80FF91F808105
:1000D0008BBB2F5F3F4F809BEECF00008099FDCF01
:1000E000EACF1BBAE8CF97FB072E16F4009407D08F
:1000F00077FD09D00E94870007FC05D03EF490955B
:1001000081959F4F0895709561957F4F0895AA1B23
:10011000BB1B51E107C0AA1FBB1FA617B70710F0F2
:10012000A61BB70B881F991F5A95A9F78095909524
:0A013000BC01CD010895F894FFCF43
:06013A000103070F1F3F47
:00000001FF
